:020000040800F2
:1000000000300020792F0008992A00089B2A000858
:100010009D2A00089F2A0008A12A0008000000006D
:10002000000000000000000000000000A32A0008FB
:10003000A52A000800000000A72A0008A92A000835
:10004000C92F0008C92F0008C92F0008C92F0008B0
:10005000C92F0008C92F0008C92F0008C92F0008A0
:10006000C92F0008C92F0008C92F0008C92F000890
:10007000C92F0008C92F0008C92F0008C92F000880
:10008000C92F0008C92F0008C92F0008C92F000870
:10009000B12A0008C92F0008C92F0008C92F00087D
:1000A000C92F0008C12A0008C92F0008C92F00085D
:1000B000C92F0008C92F000800000000C92F000840
:1000C000C92F00080000000000000000C92F000830
:1000D00000000000C92F0008D12A0008C92F00081D
:1000E000C92F0008C92F0008000000000000000010
:1000F0000000000000000000000000000000000000
:1001000000000000000000000000000000000000EF
:100110000000000000000000E12A0008F12A0008A9
:1001200000000000000000000000000000000000CF
:1001300000000000000000000000000000000000BF
:10014000C92F0008C92F00080000000000000000AF
:10015000000000000000000000000000000000009F
:10016000000000000000000000000000000000008F
:10017000000000000000000000000000000000007F
:0801800000000000C92F000877
:1001900010B5054C237833B9044B13B10448AFF3C1
:1001A00000800123237010BD7400002000000000B7
:1001B000D038000808B5034B1BB103490348AFF31F
:1001C000008008BD0000000078000020D038000842
:1001D00001F0FF01102A2BDB10F0070F08D010F8F8
:1001E000013B013A8B422DD010F0070F42B3F6D1FC
:1001F000F0B441EA012141EA014122F007047FF015
:1002000000070023F0E80256083C85EA010586EA6B
:10021000010685FA47F5A3FA87F586FA47F6A5FAA7
:1002200087F68EB9EED1F0BC01F0FF0102F00702B3
:1002300032B110F8013B013A83EA010313B1F8D15E
:100240000020704701387047002D06BF354603383F
:10025000073815F0010F07D1013015F4807F02BF78
:10026000013015F4C03F0130F0BC0138704700BFC9
:1002700010B504460E4B18784FF47A73B3FBF0F3C5
:100280000C4A1068B0FBF3F000F05EFC68B90F2C6C
:1002900001D901200AE0002221464FF0FF3000F092
:1002A00013FC034B5C60002000E0012010BD00BF88
:1002B000000000200C00002008B5074A136843F036
:1002C00010031360032000F0EDFB0020FFF7D0FFC8
:1002D00002F0CAFB002008BD00200240034A11685A
:1002E000034B1B780B441360704700BF4001002094
:1002F00000000020014B1868704700BF400100203B
:1003000038B50446FFF7F6FF0546B4F1FF3F02D0CB
:10031000044B1B781C44FFF7EDFF401BA042FAD3AF
:1003200038BD00BF00000020002800F0A18038B5D3
:10033000044690F82030D3B12268136823F00203FA
:100340001360FFF7D7FF054623685A6812F0020FC3
:1003500010D0FFF7CFFF401B0A28F5D9636A43F49A
:1003600000336362052384F82030012038BD01F09A
:100370007BFFE1E71A6842F001021A60FFF7BAFF5B
:10038000054623685A6812F0010F0DD1FFF7B2FF3E
:10039000401B0A28F5D9636A43F4003363620523DE
:1003A00084F820300120E1E7227E012A3DD01A683E
:1003B00022F080021A60637E012B3BD02268136812
:1003C00023F040031360A37E012B39D02268136809
:1003D00023F020031360E37E012B37D022681368DB
:1003E00043F010031360237F012B35D0226813687C
:1003F00023F008031360637F012B33D02268136856
:1004000023F004031360A368E268134322691343D3
:10041000626913436268013A21681343CB6100208B
:100420006062012384F82030A0E71A6842F080025D
:100430001A60C0E72268136843F040031360C2E704
:100440002268136843F020031360C4E7226813682E
:1004500023F010031360C6E72268136843F0080313
:100460001360C8E72268136843F004031360CAE707
:1004700001207047036890F82020013AD2B2012A87
:1004800005D9436A43F4802343620120704770B466
:10049000D3F8002242F00102C3F800224A6902F0B8
:1004A0001F02012000FA02F2D3F81C42D04304409C
:1004B000C3F81C42CC69ACB9D3F80C420440C3F871
:1004C0000C42CE688D884C6945EA0645483443F8AD
:1004D00034508E680D884C6945EA0645483403EB74
:1004E000C4046560CC69012C19D08C6974BBD3F845
:1004F00004420440C3F804420C696CBBD3F81442B4
:100500002040C3F81402096A01292BD0D3F8002235
:1005100022F00102C3F80022002070BC7047D3F81B
:100520000C421443C3F80C420E688D884C6945EAAE
:100530000645483443F834508E688D894C6945EA45
:100540000645483403EBC4046560CEE7D3F80442A3
:100550001443C3F80442CFE7D3F814021043C3F89E
:100560001402D0E7D3F81C120A43C3F81C22CDE7CB
:1005700038B590F82030DBB2012B05D0436A43F444
:1005800000234362012038BD0446022380F8203056
:100590000268136823F001031360FFF7ABFE054602
:1005A00023685B6813F0010F0DD0FFF7A3FE401B1B
:1005B0000A28F5D9636A43F400336362052384F89B
:1005C00020300120DFE700206062DCE770B490F8A3
:1005D00020400568AD68013CE4B2012C06D9436AAD
:1005E00043F480234362012070BC704715F0E05F44
:1005F0005BD0C5F30165022D3ED80124AC401C60E0
:100600008B68002B3ED10E68CB68046843EA4656DF
:1006100005F118031B01E65003680C6905F1180683
:1006200003EB06135C600B7D012B36D0D1799379F7
:100630001B0443EA0163517943EA012314790168F9
:1006400023432C012144C1F88C31D17893781B04C9
:1006500043EA0163517843EA0123117802680B43AE
:100660002244C2F88831026818352D01535943F0ED
:10067000010353510020B7E7436A43F40003436288
:100680000120B1E74C6843EAC403CC680668234301
:1006900005F1180424013351BEE7036803EB061388
:1006A000596841F480715960C0E7436A43F400130C
:1006B0004362012098E790F82030013BDBB2012B28
:1006C00001D90020704703689B68890631EA03035B
:1006D00001D0012070470020704730B490F82040CE
:1006E000013CE4B2012C06D9436A43F480234362FF
:1006F000012030BC704700296FD10468E46814F011
:10070000030F64D0056801F11B0424012C5904F087
:1007100004049460002C6BD1056801F11B042401D2
:100720002C59640D1460056801F11B0424012D5936
:10073000C5F34005D560056825446D6805F00F05D3
:100740001561056825446D68C5F307259561056841
:100750002C446468240C546104680A011444D4F8DD
:10076000B8411C7004681444D4F8B841C4F3072499
:100770005C7004681444D4F8B841C4F307449C7016
:1007800004681444D4F8B841240EDC70046814449E
:10079000D4F8BC411C7104681444D4F8BC41C4F3BF
:1007A00007245C7104681444D4F8BC41C4F30744C2
:1007B0009C7104682244D2F8BC21120EDA71F9B996
:1007C0000268D36843F02003D360002091E7436AB6
:1007D00043F40013436201208BE70468246914F09A
:1007E000030F8FD1436A43F400134362012080E773
:1007F000056801F11B0424012C59E408546092E7B8
:100800000268136943F020031361002071E790F838
:100810002030013BDBB2012B05D9436A43F480232E
:1008200043620120704702685369194351610020F7
:100830007047704770477047704770477047704700
:10084000704770477047704770472DE9F84F05466D
:1008500003685C695F689E68D3F80C90D3F81080D9
:10086000D3F818A014F0010F5AD016F0010F17D0CA
:1008700001229A6016F0020F08D116F0040F30D151
:1008800016F0080F07D04FF4805B0BE0FFF7D1FFA5
:100890004FF0000B06E0FFF7CFFF4FF0000B01E039
:1008A0004FF0000B16F4807F0BD02B684FF4807252
:1008B0009A6016F4007F17D116F4806F18D04BF4AD
:1008C000005B16F4803F2DD02B684FF480329A6085
:1008D00016F4003F16D116F4802F17D04BF4004BBE
:1008E00020E04FF4006BDDE72846FFF7A3FFE8E7C1
:1008F00016F4006F02D04BF4804BE2E72846FFF776
:100900009CFFDEE72846FFF796FF0BE016F4002F6A
:1009100002D04BF4803B05E02846FFF78FFF01E053
:100920004FF0000B14F0080F07D019F0100F04D08F
:100930004BF4007B2B681022DA6014F0040F02D015
:1009400019F0080F60D114F0020F04D02B68DB6897
:1009500013F0030F5FD114F0400F07D018F0100F01
:1009600004D04BF4806B2B6810221A6114F0200F16
:1009700002D018F0080F52D114F0100F04D02B68D9
:100980001B6913F0030F51D114F4003F02D017F08C
:10099000100F4FD114F4803F02D017F0080F50D140
:1009A00014F4004F67D017F0040F61D014F4807F67
:1009B00004D01AF0010F01D04BF0010B14F4007FAA
:1009C00004D01AF0020F01D04BF0020B14F4806F28
:1009D00004D01AF0040F01D04BF0040B14F4006F94
:1009E00046D01AF0700A43D0BAF1300F48D02FD950
:1009F000BAF1500F47D0BAF1600F47D0BAF1400FAB
:100A000031D14BF0400B2EE02B680822DA602846EB
:100A1000FFF715FF97E7284602F0E0F89BE72B6801
:100A200008221A612846FFF70CFFA5E72846FFF7C2
:100A300007FFA9E72B6810225A602846FFF702FF3C
:100A4000A8E72B6808225A602846FFF7FCFEA7E7B4
:100A5000BAF1100F05D0BAF1200F04D14BF0100BF2
:100A600001E04BF0080B2A68936923F0700393614F
:100A70002B6804225A60BBF1000F0AD1BDE8F88F41
:100A80004BF0200BEFE74BF0800BECE74BF4807B57
:100A9000E9E76B6A43EA0B036B622846FFF7D4FE73
:100AA000ECE70000074AD36823F4E0631B041B0C47
:100AB000000200F4E060184340F0BF6040F40030F2
:100AC000D060704700ED00E030B4174BDB68C3F333
:100AD0000223C3F10704042C28BF04241D1D062D86
:100AE00018D9033B4FF0FF3505FA04F421EA04015D
:100AF000994005FA03F322EA0303194300280BDBAC
:100B00000901C9B200F1604000F5614080F80013AE
:100B100030BC70470023E5E700F00F000901C9B2BF
:100B2000024B1954F4E700BF00ED00E014ED00E0C3
:100B300000F01F02400901239340024A42F820308E
:100B4000704700BF00E100E00138B0F1807F0AD2B9
:100B5000064B5860064AF02182F823100020986066
:100B600007221A6070470120704700BF10E000E0C4
:100B700000ED00E008B590F82130022B03D00423EB
:100B80008363012008BD0268136823F00E0313601D
:100B90000268136823F001031360036CC16B012228
:100BA00002FA03F34B6080F82120002380F8203004
:100BB000436B13B198470020E4E70020E2E7000010
:100BC000F0B482B0002336E0032400E00024B440F7
:100BD0003C430235584E46F82540584C2568D443CE
:100BE00004EA05064F6817F4803F01D042EA050683
:100BF000524D2E606D6804EA05064F6817F4003FF9
:100C000001D042EA05064D4D6E60AD6804EA050666
:100C10004F6817F4801F01D042EA0506474DAE60C9
:100C2000ED682C404E6816F4001F01D042EA05041E
:100C3000424AD46001330A6832FA03F478D00124BE
:100C40009C402240F6D04D68022D01D0122D10D1CB
:100C5000DE08083650F826C003F00705AF000F2560
:100C6000BD402CEA050C0D69BD4045EA0C0540F875
:100C7000265006685F000325BD40ED4305EA060CDB
:100C80004E6806F00306BE4046EA0C0606604E6853
:100C900006F1FF3CBCF1010F03D9112E01D0122E39
:100CA00010D1866805EA060CCE68BE4046EA0C06FE
:100CB0008660466826EA04044E68C6F300169E4025
:100CC00026434660C46825408C68BC402C43C46001
:100CD0004C6814F0805FADD0194CA56945F0010552
:100CE000A561A46904F001040194019C9D08AE1C57
:100CF000114C54F8267003F00304A6000F24B440EE
:100D000027EA0407B0F1904F3FF460AF0D4CA042CA
:100D10000AD004F58064A04208D004F58064A042A3
:100D20003FF452AF052452E7012450E702244EE776
:100D300002B0F0BC704700BF000001400004014059
:100D400000100240000400480AB9816270478161C6
:100D5000704743695940416170470000002800F026
:100D6000F58270B582B00446036813F0010F3BD0E2
:100D7000B54B5B6803F00C03042B1ED0B24B5B68D1
:100D800003F00C03082B13D06368B3F5803F68D0E1
:100D9000002B40F0928003F1804303F504331A687E
:100DA00022F480321A601A6822F480221A605DE010
:100DB000A54B5B6813F4803FE6D04FF4003393FA01
:100DC000A3F3A14B19684FF4003393FAA3F3B3FADA
:100DD00083F303F01F03012202FA03F30B4203D053
:100DE0006368002B00F0B482236813F0020F00F058
:100DF000C680954B5B6813F00C0F00F09C80924B03
:100E00005B6803F00C03082B00F08F802369002B34
:100E100000F0F380012292FAA2F3B3FA83F303F114
:100E2000845303F584139B001A60FFF763FA0546A9
:100E3000022393FAA3F3844B1968022393FAA3F3D2
:100E4000B3FA83F303F01F03012202FA03F30B4208
:100E500040F0C480FFF74EFA401B0228E8D9032077
:100E600083E2794A136843F480331360764AD36A85
:100E700023F00F03A1680B43D3626368002B36D0C5
:100E8000FFF738FA05464FF4003393FAA3F36E4B9D
:100E900019684FF4003393FAA3F3B3FA83F303F022
:100EA0001F03012202FA03F30B429DD1FFF722FA3E
:100EB000401B6428E7D9032057E2B3F5A02F09D0DF
:100EC000614B1A6822F480321A601A6822F4802278
:100ED0001A60CBE703F18043A3F53C331A6842F470
:100EE00080221A601A6842F480321A60BEE7FFF767
:100EF00001FA05464FF4003393FAA3F3524B1968F5
:100F00004FF4003393FAA3F3B3FA83F303F01F0310
:100F1000012202FA03F30B423FF466AFFFF7EAF94E
:100F2000401B6428E6D903201FE2474B5B6813F49B
:100F3000803F7FF46BAF022393FAA3F3424B19680F
:100F4000022393FAA3F3B3FA83F303F01F030122FE
:100F500002FA03F30B4204D02369934201D001202B
:100F600003E23948036823F0F8036169F82292FA32
:100F7000A2F2B2FA82F201FA02F21343036023688A
:100F800013F0080F00F08C80A369002B60D00121C2
:100F900091FAA1F2B2FA82F22C4B13449B00196031
:100FA000FFF7A8F90546022393FAA3F293FAA3F2F6
:100FB00093FAA3F2244A516A93FAA3F3B3FA83F3A0
:100FC00003F01F03012202FA03F30B4268D1FFF77B
:100FD00091F9401B0228E6D90320C6E11A480368AC
:100FE00023F0F8036169F82292FAA2F2B2FA82F2CF
:100FF00001FA02F213430360C1E7012393FAA3F35A
:10100000B3FA83F303F1845303F584139B000022A6
:101010001A60FFF76FF90546022393FAA3F30A4B10
:101020001968022393FAA3F3B3FA83F303F01F03BF
:10103000012202FA03F30B42A1D0FFF75BF9401B38
:101040000228E9D9032090E100100240208190108D
:10105000012292FAA2F2B2FA82F2C04B13449B0030
:1010600000221A60FFF746F90546022393FAA3F21D
:1010700093FAA3F293FAA3F2B94A516A93FAA3F34B
:10108000B3FA83F303F01F03012202FA03F30B42C6
:1010900006D0FFF72FF9401B0228E6D9032064E1B0
:1010A000236813F0040F00F0B380AD4BDB6913F03D
:1010B000805F20D1AA4BDA6942F08052DA61DB69A5
:1010C00003F080530193019B0125A64B1B6813F489
:1010D000807F12D0E368012B23D073BB03F18043E0
:1010E00003F504331A6A22F001021A621A6A22F026
:1010F00004021A621AE00025E7E79A4A136843F4EB
:1011000080731360FFF7F6F80646964B1B6813F4DE
:10111000807FDFD1FFF7EEF8801B6428F5D903202C
:1011200023E18F4A136A43F001031362E368002B43
:1011300041D0FFF7DFF806462BE0052B09D0884B9E
:101140001A6A22F001021A621A6A22F004021A6272
:10115000ECE7834B1A6A42F004021A621A6A42F000
:1011600001021A62E2E77E4B196A022393FAA3F3A3
:10117000B3FA83F303F01F03012202FA03F31942C7
:1011800045D1FFF7B7F8801B41F28833984200F24F
:10119000E180022393FAA3F293FAA3F3B3FA83F361
:1011A0005B0943F00203022BDDD0022393FAA3F381
:1011B0006B4B596AD9E7FFF79DF8064615E0684B77
:1011C000196A022393FAA3F3B3FA83F303F01F031C
:1011D000012202FA03F3194219D0FFF78BF8801BA2
:1011E00041F28833984200F2B780022393FAA3F2C7
:1011F00093FAA3F3B3FA83F35B0943F00203022BE0
:10120000DDD0022393FAA3F3554B596AD9E7B5BB56
:10121000E369002B00F0A880514A526802F00C02EA
:10122000082A00F0A480022B2FD04FF0807393FA8D
:10123000A3F3B3FA83F303F1845303F584139B0000
:1012400000221A60FFF756F804464FF0007393FA35
:10125000A3F3434B19684FF0007393FAA3F3B3FA67
:1012600083F303F01F03012202FA03F319426BD048
:10127000FFF740F8001B0228E7D9032075E0384A41
:10128000D36923F08053D361C2E74FF0807393FAA0
:10129000A3F3B3FA83F303F1845303F584139B00A0
:1012A00000221A60FFF726F805464FF0007393FA04
:1012B000A3F32B4B19684FF0007393FAA3F3B3FA1F
:1012C00083F303F01F03012202FA03F3194206D04D
:1012D000FFF710F8401B0228E7D9032045E020491A
:1012E0004B6823F47413626A206A024313434B6011
:1012F0004FF0807393FAA3F3B3FA83F303F18453AB
:1013000003F584139B0001221A60FEF7F3FF0446E5
:101310004FF0007393FAA3F3114B19684FF0007369
:1013200093FAA3F3B3FA83F303F01F03012202FA43
:1013300003F3194206D1FEF7DDFF001B0228E7D9AF
:10134000032012E0002010E000200EE00120704792
:1013500001200AE0032008E0032006E0208190102D
:101360000010024000700040002002B070BD01205B
:10137000FBE700BF10B4174B5C6804F00C03082BAC
:1013800026D104F470124FF4701393FAA3F3B3FA56
:1013900083F322FA03F31049C85C0E4BDB6A03F0B7
:1013A0000F030F2292FAA2F2B2FA82F2D3400B4458
:1013B0001A7C14F4803F05D1084B03FB00F05DF864
:1013C000044B7047064BB3FBF2F300FB03F0F6E768
:1013D0000348F4E700100240E838000800093D0027
:1013E00000127A00002800F0C08070B50446614BFE
:1013F0001B6803F007038B420CD25E4A136823F08C
:1014000007030B431360136803F007038B4201D0FB
:10141000012070BD236813F0020F06D0564A5368AE
:1014200023F0F003A068034353600D46236813F0D4
:10143000010F5AD06368012B2DD0022B40D002221D
:1014400092FAA2F24C4A1068022292FAA2F2B2FA7E
:1014500082F202F01F02012101FA02F2104200F0B2
:10146000868045494A6822F0030213434B60FEF729
:1014700041FF0646404B5B6803F00C036268B3EB28
:10148000820F32D0FEF736FF801B41F2883398423C
:10149000F0D90320BDE74FF4003292FAA2F2364AA7
:1014A00010684FF4003292FAA2F2B2FA82F202F01D
:1014B0001F02012101FA02F20242D2D10120A8E763
:1014C0004FF0007292FAA2F22B4A10684FF00072AD
:1014D00092FAA2F2B2FA82F202F01F02012101FA9C
:1014E00002F21042BDD1012093E7224B1B6803F0AA
:1014F0000703AB420CD91F4A136823F007032B43A1
:101500001360136803F00703AB4201D0012080E7AA
:10151000236813F0040F06D0174A536823F4E063DE
:10152000E1680B435360236813F0080F07D0124A99
:10153000536823F46053216943EAC1035360FFF702
:1015400019FF0D4B5B6803F0F003F02292FAA2F250
:10155000B2FA82F2D340094AD35CD840084B1860F3
:101560000020FEF785FE002053E701207047012090
:101570004FE700BF00200240001002400839000879
:101580000C000020014B1868704700BF0C000020C1
:1015900008B5FFF7F7FF074B5B6803F4E0634FF410
:1015A000E06292FAA2F2B2FA82F2D340024AD35C2B
:1015B000D84008BD001002401839000808B5FFF7F0
:1015C000E1FF074B5B6803F460534FF4605292FAFB
:1015D000A2F2B2FA82F2D340024AD35CD84008BDEC
:1015E0000010024018390008F0B583B004460368C3
:1015F00013F4803F44D05F4BDB6913F0805F6ED102
:101600005C4BDA6942F08052DA61DB6903F08053A7
:101610000193019B0125584B1B6813F4807F60D018
:10162000544B1B6A13F4407321D0626802F4407279
:101630009A421CD04F48016A21F440764FF480331F
:1016400093FAA3F2B2FA82F24C4F3A4492004FF06E
:10165000010CC2F800C093FAA3F3B3FA83F33B443E
:101660009B0000221A60066211F0010F4DD1414A21
:10167000136A23F4407361680B431362002D6FD12A
:10168000236813F0010F06D03A4A136B23F00303CB
:10169000A1680B431363236813F0200F06D0354A6B
:1016A000136B23F01003E1680B431363236813F0FB
:1016B000800F06D02F4AD36A23F4F87321690B43B5
:1016C000D362236813F4805F51D02A4A136B23F44A
:1016D000807361690B431363002003B0F0BD0025E4
:1016E00099E7254A136843F480731360FEF702FEFE
:1016F0000646214B1B6813F4807F91D1FEF7FAFD5B
:10170000801B6428F5D90320E7E7FEF7F3FD0646C2
:1017100014E0184B196A022393FAA3F3B3FA83F384
:1017200003F01F03012202FA03F30B429FD1FEF7DD
:10173000E1FD801B41F28833984216D8022393FAC8
:10174000A3F293FAA3F3B3FA83F35B0943F0020322
:10175000022BDED0022393FAA3F3064B596ADAE791
:10176000D36923F08053D3618AE70320B5E70020D3
:10177000B3E700BF001002400070004000819010ED
:101780000268D36843F00103D3600268136843F032
:10179000010313600020704770477047704770471F
:1017A00010B5044603681A6912F0020F11D0DA6806
:1017B00012F0020F0DD06FF002021A6101230377BD
:1017C00003689B6913F0030F79D0FFF7E6FF00234E
:1017D000237723681A6912F0040F12D0DA6812F026
:1017E000040F0ED06FF004021A61022323772368DE
:1017F0009B6913F4407F68D02046FFF7CEFF00239B
:10180000237723681A6912F0080F12D0DA6812F0F1
:10181000080F0ED06FF008021A61042323772368A3
:10182000DB6913F0030F57D02046FFF7B6FF002304
:10183000237723681A6912F0100F12D0DA6812F0B9
:10184000100F0ED06FF010021A610823237723685F
:10185000DB6913F4407F46D02046FFF79EFF00234C
:10186000237723681A6912F0010F03D0DA6812F0A7
:10187000010F3FD123681A6912F0800F03D0DA6894
:1018800012F0800F3DD123681A6912F4807F03D0D3
:10189000DA6812F0800F3BD123681A6912F0400F0A
:1018A00003D0DA6812F0400F39D123681A6912F0B8
:1018B000200F03D0DA6812F0200F37D110BDFFF7E8
:1018C0006BFF2046FFF76AFF81E72046FFF764FFC2
:1018D0002046FFF763FF92E72046FFF75DFF2046B3
:1018E000FFF75CFFA3E72046FFF756FF2046FFF710
:1018F00055FFB4E76FF001021A61204600F046FE82
:10190000B8E76FF080021A61204600F0A2F8BAE74B
:101910006FF480721A61204600F09CF8BCE76FF00B
:1019200040021A612046FFF73AFFBEE76FF020023F
:101930001A61204600F08CF8C0E700000368224AD4
:10194000904206D0B0F1804F03D0A2F5943290427D
:1019500003D123F070034A6813431B4A904212D00C
:10196000B0F1804F0FD0A2F5943290420BD002F527
:101970009E32904207D002F58062904203D002F579
:101980008062904203D123F44073CA68134323F06A
:1019900080034A69134303608B68C3620B688362E8
:1019A000094B98420BD003F5A053984207D003F59A
:1019B0008063984203D003F58063984201D10B699C
:1019C0000363012343617047002C0140A8B110B5A7
:1019D000044690F83D305BB1022384F83D30211D70
:1019E0002068FFF7ABFF012384F83D30002010BDD5
:1019F00080F83C3001F0D4F9EEE701207047000098
:101A000090F83C30012B1FD030B4012380F83C30DB
:101A10000268536895680D4CA24210D023F0700301
:101A20000C68234325F080048968214353600368D0
:101A30009960002380F83C30184630BC704723F48E
:101A400070034C682343E9E702207047002C0140F3
:101A50007047704770470268136823F490731360EF
:101A60000268936823F001039360202380F86A30B2
:101A7000704790F86A30DBB2202B49D1002949D059
:101A8000002A49D090F86830012B47D0012380F814
:101A900068304165A0F85820A0F85A208368B3F553
:101AA000805F06D0A3B9036973B9FF23A0F85C3047
:101AB00011E0036923B940F2FF13A0F85C300AE09B
:101AC000FF23A0F85C3006E07F23A0F85C3002E042
:101AD000B3F1805F12D00023C366222280F86A200F
:101AE00080F8683001688A6842F001028A60016803
:101AF0000A6842F490720A601846704703691BB97D
:101B00007F23A0F85C30E6E73F23A0F85C30E2E7F3
:101B10000220704701207047012070470220704763
:101B20007047704708B5406A0023A0F85A30A0F803
:101B30005230FFF7F6FF08BD10B50446836802690E
:101B4000134342691343C269134301680868654A35
:101B5000024013430B602268536823F44053E1684A
:101B60000B435360A369226A1A4321688B6823F4EC
:101B7000306313438B6023685B4A934215D05B4A02
:101B8000934229D002F58062934221D01022E1696C
:101B9000B1F5004F22D0082A00F2A280DFE802F05F
:101BA00066727EA08AA0A0A0960002F55842126B31
:101BB00002F00302032A09D8DFE802F00204060C4F
:101BC0000022E4E70422E2E70822E0E71022DEE751
:101BD0000022DCE70222DAE70022D8E7082A42D80E
:101BE000DFE802F0051722412D4141413800FFF79F
:101BF000CFFC6268530803EB4003B3FBF2F39BB2E4
:101C0000002023F00F02C3F3420313432268D36082
:101C100010BDFFF7D3FC6268530803EB4003B3FB2E
:101C2000F2F39BB20020ECE76268530803F57403FB
:101C300003F51053B3FBF2F39BB20020E1E7FFF78B
:101C400099FB6268530803EB4003B3FBF2F39BB2CA
:101C50000020D6E76268530803F58033B3FBF2F344
:101C60009BB20020CDE701200023CAE7FFF790FCDC
:101C7000636800EB5300B0FBF3F0236880B2D860D8
:101C80000020C5E7FFF79AFC636800EB5300B0FB48
:101C9000F3F0236880B2D8600020B9E761684A0891
:101CA00002F5F40202F59052B2FBF1F292B2DA6060
:101CB0000020ADE7FFF75EFB636800EB5300B0FB6D
:101CC000F3F0236880B2D8600020A1E761684A0879
:101CD00002F50042B2FBF1F292B2DA60002097E71F
:101CE000012095E7F369FFEF003801400044004010
:101CF000436A13F0010F06D00268536823F40033DF
:101D0000816A0B435360436A13F0020F06D00268E6
:101D1000536823F48033C16A0B435360436A13F062
:101D2000040F06D00268536823F48023016B0B4331
:101D30005360436A13F0080F06D00268536823F417
:101D40000043416B0B435360436A13F0100F06D0FE
:101D50000268936823F48053816B0B439360436A5A
:101D600013F0200F06D00268936823F40053C16B70
:101D70000B439360436A13F0400F0AD00268536824
:101D800023F48013016C0B435360036CB3F5801F85
:101D90000BD0436A13F0800F06D00268536823F417
:101DA0000023816C0B43536070470268536823F42F
:101DB000C003416C0B435360EBE72DE9F04105464E
:101DC0000F4616469846069C2B68DB6937EA0303E4
:101DD0000CBF01230023B3421DD1B4F1FF3FF3D068
:101DE0002CB1FEF787FAA0EB0800A042ECD92A68D4
:101DF000136823F4D07313602A68936823F00103F7
:101E00009360202385F8693085F86A30002385F8CF
:101E10006830032000E00020BDE8F0812DE9F041AA
:101E200082B01E4690F86930DBB2202B4ED10446BA
:101E30000D46904600294ED0002A4ED090F86830CA
:101E4000012B4CD0012380F868300023C366212386
:101E500080F86930FEF74EFA0746A4F85080A4F8DF
:101E6000528003E023682A781A850135B4F852308D
:101E70009BB2DBB1B4F85230013B9BB2A4F85230B4
:101E800000963B46002280212046FFF796FF40BB8C
:101E9000A368B3F5805FE5D12369002BE2D1226806
:101EA00035F8023BC3F308031385DFE700963B4692
:101EB000002240212046FFF780FF034698B92022E8
:101EC00084F86920002284F8682000E00223184684
:101ED00002B0BDE8F0810123F9E70123F7E702230F
:101EE000F5E70323F3E70323F1E730B583B00446B6
:101EF0000023C366FEF7FEF9054623681B6813F04E
:101F0000080F0ED123681B6813F0040F17D120238C
:101F100084F8693084F86A30002084F8680003B0DF
:101F200030BD6FF07E430093034600224FF4001152
:101F30002046FFF742FF0028E4D00320EFE76FF0D0
:101F40007E4300932B4600224FF480012046FFF78A
:101F500034FF0028DBD00320E1E778B310B5044656
:101F600090F869300BB3242384F869302268136831
:101F700023F0010313602046FFF7DEFD012813D094
:101F8000636ABBB92268536823F4904353602268A4
:101F9000936823F02A0393602268136843F00103D7
:101FA00013602046FFF7A1FF10BD80F8683000F0F5
:101FB0007FFFD8E72046FFF79BFEE3E7012070474D
:101FC00090F86930DBB2212B2ED1B0F852309BB2A1
:101FD0008BB18368B3F5805F19D0C36C5A1CC2649F
:101FE00002681B781385B0F85230013B9BB2A0F811
:101FF0005230002070470268136823F0800313609A
:102000000268136843F040031360002070470369BF
:10201000002BE2D1C36C02681B88C3F3080313854D
:10202000C36C0233C364DEE70220704708B5016861
:102030000B6823F040030B60202380F86930FFF722
:102040006FFD002008BDB0F85C2090F86A30DBB26C
:10205000222B31D110B503689B8C9BB28168B1F5FE
:10206000805F0ED0D2B2416D4C1C44651A400A709C
:10207000B0F85A30013B9BB2A0F85A305BB1002057
:1020800010BD01690029EDD1416D1A400A80436DF0
:1020900002334365ECE70268136823F4907313601E
:1020A0000268936823F001039360202380F86A306C
:1020B00000F018FB0020E3E70268936943F008038F
:1020C000936102207047000038B504460268D36966
:1020D000116813F00F0505D113F0200F02D011F095
:1020E000200F60D19068002D72D010F0010502D150
:1020F00011F4907F6CD013F0010F07D011F4807FA2
:1021000004D001201062E26E0243E26613F0020F77
:1021100007D035B1226802201062E26E42F004025C
:10212000E26613F0040F07D035B122680420106274
:10213000E26E42F00202E26613F0080F09D011F0DD
:10214000200F00D12DB1226808201062E26E0243F8
:10215000E266E26E002A4DD013F0200F02D011F09B
:10216000200F23D1E36E13F0080F04D123689B687E
:1021700013F0400F26D02046FFF76DFC23689A68C5
:1021800012F0400F1AD09A6822F040029A60636EF3
:1021900083B1234A5A63606EFEF7ECFC50B3606E65
:1021A000436B984726E0FFF74EFF23E02046FFF7FA
:1021B0004AFFD7E72046FFF7B4FC1BE02046FFF7B5
:1021C000B0FC17E02046FFF7ACFC0023E36611E00B
:1021D00013F4801F02D010F4800F0CD113F0800F85
:1021E00002D011F0800F12D113F0400F02D011F085
:1021F000400F10D138BD4FF480131362202384F8B0
:10220000693084F86A30204600F00CF8F2E7204686
:10221000FFF7D6FEEEE72046FFF708FFEAE700BF2C
:10222000251B00087047000008B50D480D4B0360E2
:102230000623436000238360C3604FF400320261D1
:102240004FF480124261037643768376C376037738
:102250004377FEF769F800B908BD00F0F3FAFBE731
:10226000440100200064004000B589B000230393BE
:1022700004930593069307930268184B9A4202D081
:1022800009B05DF804FB03F5D633DA6942F0007259
:10229000DA61DA6902F000720192019A5A6942F435
:1022A00000325A615B6903F400330293029B4FF4DE
:1022B000C053039302230493032306930923079334
:1022C00003A94FF09040FEF77BFC00220721142069
:1022D000FEF7FAFB1420FEF72BFCD1E70064004068
:1022E000002209E0074B002143F8321003EBC20340
:1022F00059609962D9620132042AF3DD014B002250
:102300001A657047900000200138032801D9002089
:10231000704701207047000070B505460C46164610
:10232000FFF7F2FF68B104F2FF3240F2FE739A4207
:102330000AD8074840F8354000EBC5004660002049
:1023400070BD4FF0FF30FBE76FF00100F8E700BF12
:102350009000002038B505460C46FFF7D5FF48B180
:10236000012C0AD804EB4504054B03EB8404002040
:10237000A06238BD4FF0FF30FBE76FF00100F8E7D7
:102380009000002010B5002408E000212046FFF74F
:10239000E1FF01212046FFF7DDFF0134042CF4DDCD
:1023A00010BD00000F2951D813789809022802D9CE
:1023B000032805D07047042900D17047FE207047DC
:1023C000032945D130B413F0200F1DD121490C6DE4
:1023D0005B0103F4E06355782B4301EBC4018C6A85
:1023E00023448B62137813F0040F1ED119490C6D2E
:1023F0001B0203F4E0639278134301EBC402D16A39
:102400000B44D36230BC7047124C216D5B0103F466
:10241000E06355782B436FEA43536FEA535304EB61
:10242000C1018C6A23448B62DCE70A4C216D1B02DC
:1024300003F4E063927813436FEA43536FEA535314
:1024400004EBC102D16A0B44D362DBE7FE20704784
:10245000FE2070479000002030B4104C236D0133F3
:102460002365042B02DD234601241C650B4C256DDE
:10247000056003230B6054F83500431103F0380363
:1024800063F03F0304EBC5046168C1F302242343F6
:1024900013705070917030BC704700BF90000020E6
:1024A00030B589B0002403940494059406940794ED
:1024B0001B4B5A6942F480025A615A6902F4800245
:1024C0000092009A5A6942F400325A615A6902F441
:1024D00000320192019A5A6942F480225A615B6982
:1024E00003F480230293029B0E4D224608212846C6
:1024F000FEF72AFC302303930494059403A94FF0BC
:102500009040FEF75DFB0823039301230493059499
:10251000069403A92846FEF753FB09B030BD00BF5F
:10252000001002400004004870B596B0202200213F
:102530000DA800F085FD00240794089409940A94DE
:102540000B94019402940394049405940694022637
:102550000C96012510951023119313964FF4E01358
:1025600015930CA8FEF7FAFB0F230793089609941E
:102570000A940B94294607A8FEF734FF01950394AB
:1025800001A8FFF731F816B070BD000030B58BB070
:1025900005460268394B9A4205D02A68384B9A4260
:1025A0005CD00BB030BD08213648FEF7D2FB05A841
:1025B00000F012FA344800F037FA9DF81C10334846
:1025C00000F032FA9DF81D10314800F02DFA9DF808
:1025D0001E10304800F028FA9DF81F102E4800F019
:1025E00023FA9DF819102D4800F01EFA9DF81A10D4
:1025F0002B4800F019FA9DF81B102A4800F014FA35
:102600009DF81810284800F00FFA9DF8141027487C
:1026100000F00AFA9DF81510254800F005FA9DF81B
:102620001610244800F000FA9DF81710224800F018
:10263000FBF99DF82410214800F0F6F99DF82510CB
:102640001F4800F0F1F9012405E000221146204660
:10265000FFF762FE0134042CF7DD9EE701230193AE
:102660000323029303AA02A901A8FFF7F5FE03AA18
:102670000299019800F086FA93E700BF00440140F8
:1026800000140040000400482039000830390008D8
:102690003839000840390008483900085039000826
:1026A0005C39000868390008783900088839000862
:1026B000903900089C390008A8390008B43900088E
:1026C000CC39000800B585B06A4602A903A800F01D
:1026D00045FA6A4602990398FFF764FE05B05DF873
:1026E00004FB00000268084B1B689A4200D0704748
:1026F00010B5064C0821204600F0CAF808222146F1
:102700000148FFF7B6F910BD9C020020E40000204C
:1027100010B582B004468901C9B211438DF800108A
:102720008DF80130049B8DF80230059B8DF8033045
:102730006420FDF7E5FD6A460421204600F022FAF8
:1027400002B010BD00B583B0FDF7B6FDFFF7ECFE9B
:10275000FFF7A6FE00F0E2FA00F072FBFFF764FD5F
:1027600000F0B4FA00F088FB00F000FB00F084F801
:102770002E4800F03FF908222D492E48FFF779F93D
:10278000FFF7AEFD1F2200212B4800F0B9F9FFF73B
:10279000F9FD4FF4FA70FDF7B3FD2D2501951E24C8
:1027A00000942346002211460120FFF7B1FF019556
:1027B00000942346002201210846FFF7A9FF019556
:1027C00000942346002211460220FFF7A1FF019545
:1027D00000942346002201210220FFF799FF019572
:1027E00000942346002211460320FFF791FF019534
:1027F00000942346002201210320FFF789FF019561
:1028000000942346002211460420FFF781FF019522
:1028100000942346002201210420FFF779FF074896
:10282000FEF7AEFF0648FEF7ABFFFEE72C020020E6
:10283000E40000209C02002044010020EC01002064
:10284000AC010020704700000A4B00221A705A7039
:102850009A70DA701A715A719A71DA711A725A7220
:102860009A72DA721A735A7340225A741A74DA73AB
:102870009A737047EC00002008B5FFF7E5FF034BA3
:1028800001225A6100229A6108BD00BFEC000020BD
:1028900070B506460D46002487E04E4B00229A6133
:1028A00089E04C4A2244127F134403F07F03013431
:1028B000062CF6DD474A92F823209A4240F08180A8
:1028C000FFF7C2FF434B9B7FC3F340024AB113F0B3
:1028D000010F06D03F4A0121117308E000230124B3
:1028E000E6E713F0010F0CD03A4A01211170C3F34F
:1028F000800262B113F0080F09D0364A01215173EA
:102900000AE0002AF3D0334A01215170EFE7002A90
:1029100043D0304A0121917013F0100F02D02D4A9C
:102920000121117113F0200F02D02A4A01215171A7
:1029300013F0400F02D0274B01229A71254B5B7F89
:1029400013F0010F02D0234A0121D17113F0020FBD
:1029500002D0204A0121117213F0040F02D01D4A47
:102960000121517213F0080F02D01A4A012191720D
:1029700013F0100F02D0174B0122DA72154B93F8A7
:1029800020201A74DA7F5A7493F822209A7393F8ED
:102990002120DA7300225A6113E013F0080FBBD034
:1029A0000C4A0121D170B7E70134AC4211DA315D34
:1029B00080293FF472AF074B9A6913441977072AAD
:1029C0008CD0044B9B69072BEEDC0133014A9361E9
:1029D000EAE770BDEC00002030B40546044C0FCC93
:1029E00028606960AA60EB6023882B8230BC704746
:1029F000EC000020014B1860704700BF1801002058
:102A000038B50546002407E04FF4805301220548FD
:102A10000068FFF703FA013429192B5D002BF3D16D
:102A200038BD00BF180100200FB430B583B006AB2D
:102A300053F8045B01932A460021084600F0ECFBA2
:102A4000013000F0EDFA0446019A294600F008FC36
:102A50002046FFF7D5FF204600F0EAFA03B0BDE8B4
:102A6000304004B07047000082B00A4B9A6942F0CF
:102A700001029A619A6902F001020092009ADA69F1
:102A800042F08052DA61DB6903F080530193019BCD
:102A900002B07047001002407047FEE7FEE7FEE715
:102AA000FEE770477047704708B5FDF717FC08BD93
:102AB00008B50248FDF7C9FE08BD00BF440100206B
:102AC00008B50248FEF76CFE08BD00BFAC0100204F
:102AD00008B50248FFF7F8FA08BD00BF9C020020C5
:102AE00008B50248FEF75CFE08BD00BF6C0100207F
:102AF00008B50248FEF754FE08BD00BFEC010020F7
:102B000030B58BB0144C206000236360A36004E0F8
:102B1000114C1C44002525730133072BF8DD0023DD
:102B20000593069307934901009101915201029286
:102B300003920493012308930E2309936946FDF73A
:102B400099FC054C02212068FDF761FE2068FDF725
:102B50000FFD0BB030BD00BF1C01002010B4084BAE
:102B60005C68046098680860002304E00449194424
:102B7000097BD15401339842F8DC5DF8044B70476F
:102B80001C01002070B588B006460C461546114B56
:102B90001968114B1868FDF78EFDC0B90296002325
:102BA000039304930593069405E0E95C08AA1A448C
:102BB00002F8201C0133A342F7DB064B6A4602A948
:102BC00005480068FDF702FD002008B070BD4FF019
:102BD000FF30FAE7080000201C0100200268114BBA
:102BE000186803689A4200D0704700B58BB001ABFB
:102BF00003AA0021FDF771FD0A4B039A5A60079A58
:102C00009A60002307E00AAA1A4412F8241C054A15
:102C10001A4411730133072BF5DDFFF753FD0BB099
:102C20005DF804FB1C01002008B503460B4A12683E
:102C300042B10A4A106803446A46934206D8074ADA
:102C4000136008BD054A06491160F2E700F0BEF9BD
:102C50000C2303604FF0FF30F3E700BF300100208A
:102C6000100300201549D1F8883043F47003C1F8EF
:102C70008830134B1A6842F001021A605868114AF2
:102C800002405A601A6822F0847222F480321A607C
:102C90001A6822F480221A605A6822F4FE025A60EE
:102CA000DA6A22F00F02DA62186B074A02401A63EE
:102CB00000229A604FF000638B60704700ED00E0E7
:102CC000001002400CC07FF8CCFC00FF00B585B0BE
:102CD00000230193029303930E480F4A02600822D7
:102CE0004260836040F2CF72C2608361FEF76EFE85
:102CF00050B900230193039301A90648FEF780FE13
:102D000028B905B05DF804FBFFF79CFDF1E7FFF77C
:102D100099FDF6E76C0100200010004000B585B079
:102D200000230193029303930E480F4A0260082286
:102D30004260836040F2CF72C2608361FEF746FE5C
:102D400050B900230193039301A90648FEF758FEEA
:102D500028B905B05DF804FBFFF774FDF1E7FFF754
:102D600071FDF6E7EC0100200014004008B50A48A8
:102D70000A4B0360082343600023836044F61F620C
:102D8000C260036143618361FEF720FE00B908BDA4
:102D9000FFF758FDFBE700BFAC01002000440140F5
:102DA00000B585B00368224A934208D0214A934275
:102DB00018D0214A934228D005B05DF804FB1F4B80
:102DC000DA6942F01002DA61DB6903F01003019363
:102DD000019B002211463620FDF776FE3620FDF7D6
:102DE000A7FEE9E7154BDA6942F02002DA61DB69F8
:102DF00003F020030293029B002201213720FDF7FC
:102E000063FE3720FDF794FED6E70C4B9A6942F437
:102E100000329A619B6903F400330393039B002201
:102E200011461920FDF750FE1920FDF781FEC3E77A
:102E30000010004000140040004401400010024017
:102E400008B50B480B4B03604FF416534360002347
:102E50008360C36003610C2242618361C3610362CA
:102E60004362FFF77AF800B908BDFFF7EBFCFBE718
:102E70002C0200200038014008B50B480B4B0360C2
:102E80004FF41653436000238360C36003610C2238
:102E900042618361C36103624362FFF75EF800B978
:102EA00008BDFFF7CFFCFBE79C0200200044004078
:102EB00000B58BB0002305930693079308930993FD
:102EC00003682A4A934205D0294A934224D00BB082
:102ED0005DF804FB274B9A6942F480429A619A6933
:102EE00002F480420192019A5A6942F400325A6116
:102EF0005B6903F400330293029B4FF4C0630593B4
:102F000002230693032308930723099305A94FF08F
:102F10009040FDF755FEDAE7164BDA6942F40032CD
:102F2000DA61DA6902F400320392039A5A6942F4D0
:102F300000325A615B6903F400330493049B0C2351
:102F4000059302230693032308930723099305A9F6
:102F50004FF09040FDF734FE002204212620FDF7BB
:102F6000B3FD2620FDF7E4FDB1E700BF00380140C6
:102F70000044004000100240DFF834D0002103E09C
:102F80000C4B5B58435004310B480C4B42189A428F
:102F9000F6D30B4A02E0002342F8043B094B9A4265
:102FA000F9D3FFF75FFE00F017F8FFF7CBFBFEE762
:102FB00000300020243A00080000002074000020A7
:102FC0007400002010030020FEE70000014B186889
:102FD000704700BF1000002070B50D4E0D4CA41BB3
:102FE000A4100025A54209D10B4E0C4C00F070FC3A
:102FF000A41BA4100025A54205D170BD56F82530AC
:1030000098470135EEE756F8253098470135F2E745
:103010001C3A00081C3A00081C3A0008203A000834
:10302000024B0146186800F061B800BF1000002094
:10303000024B0146186800F00BB800BF10000020DA
:1030400002440346934200D1704703F8011BF9E79D
:1030500038B50546002945D051F8043C0C1F002B1B
:10306000B8BFE41800F006F91F4A1368104633B9D8
:10307000636014602846BDE8384000F0FCB8A34205
:103080000CD921686218934204BF1A685B686360B8
:1030900004BF521822600460ECE713465A680AB174
:1030A000A242FAD919685818A0420BD120680144ED
:1030B000581882421960DDD1106852685A60014484
:1030C0001960D7E702D90C232B60D3E720682118B9
:1030D0008A4204BF11685268626004BF0918216007
:1030E0005C60C7E738BD00BF3801002070B5CD1C5B
:1030F00025F0030508350C2D38BF0C25002D06469C
:1031000001DBA94203D90C233360002070BD00F01D
:10311000B1F8214A1468214691B9204C23681BB9A3
:10312000304600F03DF820602946304600F038F87F
:10313000431C24D10C233360304600F09CF8E4E7B4
:103140000B685B1B18D40B2B0FD90B60CD50CC1820
:10315000304600F090F804F10B00231D20F007002A
:10316000C31AD3D05A42E250D0E78C424B6816BF04
:10317000636013600C46EBE70C464968CCE7C41C5F
:1031800024F00304A04205D0211A304600F008F8CC
:103190000130CFD02560DBE7380100203C01002062
:1031A00038B5064C0023054608462360FFF73CFD72
:1031B000431C02D1236803B12B6038BD0C030020EF
:1031C00030B5141E05469BB0184605DA8B232B60DC
:1031D0004FF0FF301BB030BD4FF40273ADF80C3030
:1031E00014BF04F1FF332346029305934FF6FF7398
:1031F00000910491ADF80E3002461E9B69462846A8
:1032000000F094F8431CBCBF8B232B60002CE1D052
:10321000009B00221A70DDE707B5009313460A46AB
:10322000014603480068FFF7CBFF03B05DF804FBDD
:103230001000002000B59BB0009104916FF0004198
:103240000591029105490391694600F06FF8009BD2
:1032500000221A701BB05DF804FB00BF0802FFFFDC
:1032600013460A46014602480068FFF7E3BF00BF65
:1032700010000020704770472DE9F0478E689E428D
:1032800082460C469046994637D88A8912F4906F48
:1032900031D0256809696F1A6569022305EB450578
:1032A00095FBF3F509F101033B449D4238BF1D46F0
:1032B000530530D52946FFF719FF064650B90C23B0
:1032C000CAF80030A38943F04003A3814FF0FF30D8
:1032D000BDE8F0873A46216900F0A8FAA38923F4F3
:1032E000906343F08003A381266165613E44ED1B3A
:1032F0002660A5604E464E4500D94E4632464146B0
:10330000206800F09EFAA3689B1BA36023681E44FC
:1033100026600020DCE72A4600F0ACFA06460028CA
:10332000E2D121695046FFF793FEC8E72DE9F04F3F
:103330001D468B891F069DB080460C4616460FD54C
:103340000B696BB94021FFF7D1FE2060206128B9DD
:103350000C23C8F800304FF0FF30C8E04023636111
:103360000023099320238DF8293030238DF82A304B
:1033700003954FF0010B37463D4615F8013B0BB165
:10338000252B3ED1B7EB060A0BD0534632462146D9
:103390004046FFF771FF013000F0A480099B5344C1
:1033A00009933B78002B00F09D8000234FF0FF3203
:1033B000CDE90523049307938DF853301A932F46D4
:1033C000052217F8011B5048FCF702FF049BD0B9F7
:1033D000D90644BF20228DF853201A0744BF2B2260
:1033E0008DF853202A782A2A15D0079A2F460020D4
:1033F0000A25394611F8013B303B092B4DD9B8B1AC
:103400000FE02F46B8E7404A801A0BFA00F0184345
:1034100004903D46D3E7039A111D12680391002AD8
:1034200001DB079204E0524243F002030792049347
:103430003B782E2B0CD17B782A2B33D1039B1A1D82
:103440001B680392002BB8BF4FF0FF330237059380
:103450002E4D397803222846FCF7BAFE38B14023B6
:10346000401B03FA00F0049B0343013704933978AF
:1034700027488DF8281006227E1CFCF7A9FE00289C
:1034800038D0244B13BB039B073323F007030833C7
:103490000393099B4B4409936DE705FB023201201E
:1034A0000F46A6E700230137059319460A2538463B
:1034B00010F8012B303A092A03D9002BC8D0059106
:1034C000C6E705FB012101230746F0E703AB0093A4
:1034D0002246114B04A94046AFF30080B0F1FF3FF4
:1034E0008146D6D1A3895B063FF535AF09981DB05B
:1034F000BDE8F08F03AB00932246074B04A940467A
:1035000000F082F8EAE700BFE8390008EE39000869
:10351000F239000800000000793200082DE9F04778
:1035200091461F468A680B69DDF820809342B8BF38
:103530001346C9F8003091F8432006460C4612B1F4
:103540000133C9F800302368990642BFD9F800302A
:103550000233C9F80030256815F0060507D104F1DB
:10356000190AE368D9F800209B1AAB4228DC94F8CA
:1035700043302268003318BF012392062DD404F192
:10358000430239463046C047013020D02368E56801
:10359000D9F8002003F00603042B08BFAD1AA36876
:1035A00022690CBF25EAE57500259342C4BF9B1A2A
:1035B000ED184FF000091A344D451AD1002008E0EB
:1035C0000123524639463046C047013003D14FF0FF
:1035D000FF30BDE8F0870135C3E7E1185A1C302001
:1035E00081F84300224494F8451082F843100233D6
:1035F000C5E70123224639463046C0470130E6D0B0
:1036000009F10109D8E700002DE9F04301F1430C6D
:103610000C46097E85B06E291746064698460C9AD8
:1036200000F0B38022D8632936D00AD8002900F0F0
:10363000B980582900F0838004F1420584F84210D3
:1036400032E0642901D06929F6D1206813680506A3
:1036500003F104012AD51B681160002B03DA2D2227
:103660005B4284F843206F480A2239E0732900F056
:103670009D8008D86F2920D07029DDD1236843F0C0
:103680002003236003E0752917D07829D4D178234B
:1036900084F84530644855E01368191D1B681160B3
:1036A00004F1420584F8423001238CE01B6811606C
:1036B00010F0400F18BF1BB2CFE713682568181D24
:1036C0001060280601D51B6802E06806FBD51B8840
:1036D00054486F2914BF0A220822002184F843109D
:1036E0006568A560002DC0F29580216821F0040175
:1036F0002160002B3DD1002D40F08E806546082AC8
:103700000BD12368DB0708D5236962689A42DEBFC4
:10371000302305F8013C05F1FF35ACEB05032361CF
:10372000CDF800803B4603AA21463046FFF7F6FE5F
:1037300001304DD14FF0FF3005B0BDE8F08339487E
:1037400084F84510136821681D1D1B6815600A0662
:103750000BD5CA0744BF41F0200121601BB9226884
:1037600022F0200222601022B7E74D0648BF9BB22C
:10377000EFE76546B3FBF2F102FB1133C35C05F8DA
:10378000013D0B460029F5D1B9E713682568616949
:10379000181D106028061B6801D5196002E06A0632
:1037A000FBD51980002323616546B9E71368191D0D
:1037B00011601D68626800212846FCF709FD08B108
:1037C000401B606063682361002384F84330A7E7EF
:1037D00023692A4639463046C0470130AAD02368BB
:1037E0009B0713D4E068039B9842B8BF1846A3E731
:1037F00001234A4639463046C04701309AD0013548
:10380000E368039A9B1AAB42F2DCEBE7002504F174
:103810001909F5E7002BACD1037884F8423004F1A4
:1038200042056CE7F93900080A3A000810B5431E52
:103830000A44914200D110BD11F8014B03F8014F29
:10384000F7E7884210B501EB020307D8421E994200
:103850000AD011F8014B02F8014FF8E78342F5D97D
:103860008118D21AD34200D110BD13F8014D01F8CE
:10387000014DF7E7F8B5074614460E4621B9114643
:10388000BDE8F840FFF732BC22B9FFF7E1FB25465F
:103890002846F8BD00F014F8A0420FD22146384661
:1038A000FFF724FC05460028F2D031462246FFF7F8
:1038B000BDFF31463846FFF7CBFBE9E73546E7E782
:1038C00051F8043C181F002BBCBF0B58C0187047A0
:1038D000F8B500BFF8BC08BC9E467047F8B500BFFD
:0838E000F8BC08BC9E467047CD
:1038E80002030405060708090A0B0C0D0E0F101039
:1038F8000102030405060708090A0B0C0D0E0F1038
:103908000000000000000000010203040607080987
:10391800000000000102030448656C6C6F2C576FAF
:10392800726C64210A0D00004C313D25640A0D00BB
:103938004C323D25640A0D0052313D25640A0D00C4
:1039480052323D25640A0D0062617473753D256429
:103958000A0D00006D6172753D25640A0D000000B6
:103968007368696B616B753D25640A0D0000000082
:1039780073616E6B616B753D25640A0D0000000074
:1039880075703D25640A0D00646F776E3D25640AE5
:103998000D00000072696768743D25640A0D000017
:1039A8006C6566743D25640A0D0000006C656674DC
:1039B8005F616E616C6F675F7570646F776E3D25D0
:1039C800640A0D006C6566745F616E616C6F675F99
:1039D80072696768746C6566743D25640A0D000039
:1039E800232D302B2000686C4C00656667454647E0
:1039F8000030313233343536373839414243444563
:103A080046003031323334353637383961626364D1
:043A180065660000DF
:043A1C00B5010008E8
:043A20009101000808
:103A240001000000100000000100000000127A00F4
:103A3400140000200000000000000000000000004E
:103A44000000000000000000000000000000000072
:103A54000000000000000000000000000000000062
:103A64000000000000000000000000000000000052
:103A74000000000000000000000000000000000042
:103A84000000000000000000000000000000000032
:043A9400000000002E
:0400000508002F7947
:00000001FF
